:100000000C941E020C9446020C9446020C94460278
:100010000C9446020C9446020C9446020C94460240
:100020000C9446020C9446020C94E20E0C94DF0CE5
:100030000C9446020C9446020C9446020C94460220
:100040000C9446020C9446020C9446020C94460210
:100050000C9446020C9446020C9446020C94DF0B5E
:100060000C9446020C9480070C94A7070C94E907A3
:100070000C9446020C9446020C9446020C944602E0
:100080000C9446020C9446020C9446020C944602D0
:100090000C9446020C9446020C9446020C944602C0
:1000A0000C9446020C9446020C944602012302234F
:1000B0000423082380230129022904290829402632
:1000C000802640298029102320234023802F402F81
:1000D000202F102F022F012F10292029402C7DFDC9
:1000E0007DFB7DF77DEF7DDF7E7F7EBF7EDF7EEF58
:1000F0007EFD7EFE7DFE0001040506070D0C0B0A49
:1001000009080A0B0C0D0706050401000800010090
:100110000074011200020000860196002202001CF9
:10012000025500210200DA010900220300710233A6
:1001300000210300F3010900220400A4025500215C
:1001400004000C020900030000F902040103090481
:10015000FD02180203090417033E030309045703B1
:100160000C0403090465030EC106C11280368136F2
:10017000C106C11612010002EF020140C016870439
:1001800002010102030109029600050100C03208C4
:100190000B00020202010409040000010202010036
:1001A0000524001001052401000104240206052491
:1001B0000600010705820310004009040100020A3D
:1001C000000000070503024000000705840240000C
:1001D00000090402000103010100092111010001CD
:1001E00022550007058103080001090403000103EB
:1001F00001020009211101000122330007058503D6
:100200000800020904040001030000000921110193
:100210000001225500070586030C000105010906AF
:10022000A10175019508050719E029E715002501C9
:1002300081029508750115002501050C09E909EAF7
:1002400009E209CD09B509B609B709B881029505D2
:10025000750105081901290591029501750391039E
:10026000950675081500257F05071900297F81006F
:10027000C005010902A1010509190129031500257D
:100280000195037501810295017505810305010939
:100290003009311581257F75089502810609389549
:1002A000018106C005010904A101150025017501A0
:1002B000952005091901292081021500250735001F
:1002C000463B017504950165140501093981420514
:1002D000010901A100150026FF03750A95040930E4
:1002E0000931093209358102C0150026FF03750A5C
:1002F0009502093609368102C00403090418035423
:1003000000650065006E0073007900640075006987
:10031000006E006F0000003E03530065007200692C
:100320000061006C002B004B006500790062006FDB
:10033000006100720064002B004D006F00750073B7
:100340000065002B004A006F00790073007400699B
:100350000063006B0000000C0331003200330034F6
:1003600000350000000E0353006500720069006153
:10037000006C0000002C5E5FB46162632D656670E6
:100380003036383764271E1F202122232425267764
:10039000763F677F6DB34445464748494A4B4C4DCD
:1003A0004E4F505152535455565758595A5B5C5DF5
:1003B000AF35B06E78000405060708090A0B0C0D6E
:1003C0000E0F101112131415161718191A1B1C1DD5
:1003D000EF75F0002A2C00006000000071000000A2
:1003E0000000000000740000000000000000000099
:1003F00000000000000000000000000000000000FD
:1004000000000000000000000000000000000000EC
:10041000000000000034000000000000732F6F0097
:10042000002E00000000003300000000000031003A
:100430000000000000009A06D2076C1211241FBEB3
:10044000CFEFDAE0DEBFCDBF11E0A0E0B1E0E0EC3D
:10045000F6E202C005900D92AE36B107D9F712E070
:10046000AEE6B1E001C01D92A331B107E1F714E09F
:10047000CCE3D4E004C02297FE010E945A13C63395
:10048000D107C9F70E94060A0C945E130C94000071
:10049000FC01718360830895AF92BF92CF92DF9287
:1004A000EF92FF920F931F93CF93DF936C01062F70
:1004B000F42EE52E5901FC01A081B181ED91FC9152
:1004C00011970190F081E02DCD0160EE0995F601C4
:1004D000A081B181ED91FC9111970190F081E02D07
:1004E000CD01602F0995F601A081B181ED91FC91BC
:1004F00011976A2D6F5F0190F081E02DCD01099574
:100500000F5F0A0D2F2D3E2DC9017C01C0E0D0E008
:100510001CC0ED91FC9111970190F081E02DCD016F
:10052000D7016C910995802F992787FD9095F70148
:1005300021917F01332727FD3095820F931F60E0C3
:1005400071E00E940F13082F2196F601A081B1815E
:10055000CA15DB05F4F2ED91FC9111970190F08141
:10056000E02DCD01602F0995F601A081B181ED91BB
:10057000FC9111970284F385E02DCD010995DF915F
:10058000CF911F910F91FF90EF90DF90CF90BF9090
:10059000AF900895CF93DF93DB010D900020E9F732
:1005A0001197A61BB70BEC01E881F9810280F3815A
:1005B000E02DAD010995DF91CF910895EF92FF9263
:1005C0000F931F937C010E94CA028C01C7010E94F5
:1005D0009D089C01200F311FC9011F910F91FF90B1
:1005E000EF900895DF93CF9300D0CDB7DEB720EF23
:1005F000298329ED2A836FEFAE014F5F5F4F22E021
:1006000030E00E944C0264EF71E080E090E00E94D4
:100610001F0C80E092E060E071E00E94DE020F902B
:100620000F90CF91DF910895DC01FA019B014427DF
:1006300037FD4095542FEA30F10529F4BA01A9019C
:100640000E9419090895EE2351F4ED91FC91119740
:100650000190F081E02DCD01622F09950895EA30D7
:1006600011F0E13039F4CD01BA01A90120E00E9476
:10067000B9080895E03131F4CD01BA01A9010E9411
:1006800028090895E23031F4CD01BA01A9010E9490
:1006900066090895CD01BA01A9012E2F0E949C0977
:1006A0000895AF92BF92CF92DF92EF92FF920F9395
:1006B0001F93CF93DF93EC010E944C02E881F981F4
:1006C000A081B18114962D913C911597CF01F9012C
:1006D0000995892B99F3E881F981A081B18116965A
:1006E0002D913C911797CF01F9010995803E910515
:1006F00091F7E881F981A081B18116962D913C9105
:100700001797CF01F9010995892B99F7E881F981AC
:10071000A081B18114962D913C911597CF01F901DB
:100720000995892B99F3A881B981ED91FC911197D5
:100730000680F781E02DCD0109956C0180E092E003
:1007400066E071E00E94CA0280E092E0B60140E1FA
:1007500050E00E941403C601880F991F0E940D0AE1
:10076000B82EA92E282F392FC9017C0100E010E0F6
:100770002FC0E881F981A081B18114962D913C911F
:100780001597CF01F9010995892B99F3A881B981B2
:10079000ED91FC9111970680F781E02DCD0109952F
:1007A000992787FD9095F7019183808380E092E0FF
:1007B00066E171E00E94CA02F701619171917F01C7
:1007C00080E092E040E150E00E9414030F5F1F4F71
:1007D0000C151D0574F280E092E00E949D0868EC03
:1007E00070E080E090E00E941F0C8B2D9A2DDF912D
:1007F000CF911F910F91FF90EF90DF90CF90BF901E
:10080000AF900895DF92EF92FF920F931F93DF93C3
:10081000CF93CDB7DEB727970FB6F894DEBF0FBEE4
:10082000CDBF7C01D62E00E012E0C80168E171E086
:100830000E94DE0281EF8E83DF82C7016FEFAE017F
:100840004A5F5F4F22E030E00E945103C8016DE132
:1008500071E00E94DE0280E18983C7016D2DAE0147
:100860004F5F5F4F21E030E00E945103C80161E219
:1008700071E00E94DE0281E18A83C7016D2DAE0125
:100880004E5F5F4F21E030E00E945103C80165E2F6
:1008900071E00E94DE0282E18B83C7016D2DAE0103
:1008A0004D5F5F4F21E030E00E945103C80169E2D3
:1008B00071E00E94DE0283E18C83C7016D2DAE01E1
:1008C0004C5F5F4F21E030E00E945103C8016DE2B0
:1008D00071E00E94DE0284E18D83C7016D2DAE01BF
:1008E0004B5F5F4F21E030E00E94510327960FB627
:1008F000F894DEBF0FBECDBFCF91DF911F910F9156
:10090000FF90EF90DF900895FC016150262F277033
:1009100081E090E0982F01C0990F2A95EAF74423CF
:10092000C1F0683020F480912402982B18C0603107
:1009300020F480912502982B1AC0683120F4809110
:100940002602982B1CC0603220F580912702982B3C
:100950001EC09095683030F48091240298239093C3
:10096000240217C0603130F48091250298239093BF
:1009700025020FC0683130F48091260298239093AD
:10098000260207C0603228F48091270298239093B2
:1009900027028081882319F4CF010E94171208953D
:1009A0008F929F92AF92BF92CF92DF92FF920F935E
:1009B0001F93DF93CF9300D000D00F92CDB7DEB757
:1009C0005C01DE011196E0E4F1E085E001900D921A
:1009D0008150E1F7C501AE014F5F5F4F25E030E088
:1009E0000E944C02D501ED91FC91A081B181149639
:1009F0002D913C911597CF01F9010995892B91F320
:100A0000D501ED91FC91A081B18116962D913C917B
:100A10001797CF01F9010995803E910589F7D50116
:100A2000ED91FC91A081B18116962D913C91179783
:100A3000CF01F9010995892B91F7D501ED91FC9131
:100A4000A081B18114962D913C911597CF01F901A8
:100A50000995892B91F3D501ED91FC91A081B1818C
:100A600016962D913C911797CF01F90109954C01EC
:100A7000CC24DD2444C1D501ED91FC91A081B1814C
:100A800014962D913C911597CF01F9010995892B69
:100A900091F3D501ED91FC91A081B18116962D9134
:100AA0003C911797CF01F9010995F82EB4E0CB16C8
:100AB000D10409F45EC085E0C816D10434F4A3E083
:100AC000CA16D10409F014C10BC0B5E0CB16D1048D
:100AD00009F489C086E0C816D10409F009C1CCC068
:100AE0000F2D112707FD1095A8014170507080E16E
:100AF00092E061E00E94840416950795402F4170B2
:100B000080E192E062E00E94840416950795402FF0
:100B1000417080E192E063E00E948404169507959D
:100B2000402F417080E192E064E00E9484041695B9
:100B30000795402F417080E192E065E00E948404B7
:100B400016950795402F417080E192E066E00E9483
:100B5000840416950795017080E192E067E0402FCC
:100B60000E948404FF1CFF24FF1C80E192E068E0E7
:100B7000BCC0082F112707FD1095169507951695EF
:100B80000795402F417080E192E069E00E94840463
:100B900016950795402F417080E192E06AE00E942F
:100BA000840416950795402F417080E192E06BE038
:100BB0000E94840416950795402F417080E192E0D1
:100BC0006CE00E94840416950795017080E192E024
:100BD0006DE0402F0E948404FF1CFF24FF1C80E175
:100BE00092E06EE082C00F2D112707FD1095A8013D
:100BF0004170507080E192E061E10E94840416959A
:100C00000795402F417080E192E062E10E948404E8
:100C100016950795402F417080E192E063E10E94B4
:100C2000840416950795402F417080E192E064E1BD
:100C30000E94840416950795402F417080E192E050
:100C400065E10E94840416950795402F417080E16C
:100C500092E066E10E94840416950795017080E198
:100C600092E067E1402F0E948404FF1CFF24FF1CD8
:100C700080E192E068E139C00F2D112707FD109542
:100C80001695079516950795402F417080E192E0E3
:100C900069E10E94840416950795402F417080E118
:100CA00092E06AE10E94840416950795402F4170F6
:100CB00080E192E06BE10E94840416950795402F35
:100CC000417080E192E06CE10E94840416950795E2
:100CD000017080E192E06DE1402F0E948404FF1CCE
:100CE000FF24FF1C80E192E06EE14F2D0E948404FE
:100CF0000894C11CD11C80E192E00E941712C81414
:100D0000D9040CF4B8CE6AE070E080E090E00E9474
:100D10001F0C0F900F900F900F900F90CF91DF91BD
:100D20001F910F91FF90DF90CF90BF90AF909F9059
:100D30008F900895EEE6F1E088E0DF011D928A953C
:100D4000E9F71092700188EE93E0A0E0B0E08093A4
:100D5000710190937201A0937301B093740110928A
:100D6000750189E491E090936F0180936E0186E7AD
:100D700091E0BF010E9448020895EF92FF920F9305
:100D80001F930FB6F8942091F7013091F80140912C
:100D9000F9015091FA010FBE80917801909179018B
:100DA000A0917A01B0917B0179018A01E81AF90AD0
:100DB0000A0B1B0BD801C7014497A105B10570F0C0
:100DC000209378013093790140937A0150937B010D
:100DD00086E791E061E070E00E94D0041F910F91DE
:100DE000FF90EF9008950F931F93CF93DF9380E0D0
:100DF00092E040E052EC61E070E00E949B128EE6CF
:100E000091E061E170E041E10E94380881E0809367
:100E1000100268EB7BE080E090E00E941F0C86E708
:100E200091E00E94F202C1E0D0E009C08E010F5FA4
:100E30001F4F86E791E0BE010E940204E8018DE0A9
:100E40000E94AA0A459794F70FB6F8948091F7018B
:100E50009091F801A091F901B091FA010FBE809331
:100E6000780190937901A0937A01B0937B01DF918F
:100E7000CF911F910F9108959091AF018091B00192
:100E8000292F30E0482F50E0981710F4205C3F4F96
:100E9000241B350BC90108958091AF01E091B00189
:100EA0008E1719F4EFEFFFEF0AC0EF5FE03408F0A0
:100EB000E0E0F0E0EF54FE4F8081E82FF0E0CF015A
:100EC00008959091AF018091B001981719F42FEF18
:100ED0003FEF0FC02091B0012F5F203408F020E0D9
:100EE000E22FF0E0EF54FE4F80812093B001282FD5
:100EF00030E0C9010895809184018823E1F70895C5
:100F00001F920F920FB60F9211242F938F939F93DE
:100F1000EF93FF932091CE009091AF019F5F9034AB
:100F200008F090E08091B001981739F0E92FF0E0D7
:100F3000EF54FE4F20839093AF01FF91EF919F916B
:100F40008F912F910F900FBE0F901F9018951F92A9
:100F50000F920FB60F9211248F939F93EF93FF93ED
:100F60009091850180918601981721F488ED8093F6
:100F7000C9000FC0909186019F5F983208F090E001
:100F8000E92FF0E0E957FE4F80818093CE009093E7
:100F90008601FF91EF919F918F910F900FBE0F905F
:100FA0001F90189510927E0188EE93E0A0E0B0E0CB
:100FB00080937F0190938001A0938101B09382017F
:100FC0001092830189E491E090937D0180937C01EC
:100FD00008951F920F920FB60F9211248F93EF93E3
:100FE000FF9310928401809131018F3F31F0809105
:100FF0003101E82FF0E00E940D0BFF91EF918F91EE
:101000000F900FBE0F901F901895FC018091C900A2
:1010100083FD05C081E0828320E030E027C080911D
:1010200031018F3F51F080918401882331F4809108
:101030003101E82FF0E00E94070B909185019F5F3E
:10104000983208F090E0809186018917E1F3E92F4A
:10105000F0E0E957FE4F608381E080938401909334
:10106000850188EF8093C90021E030E0C90108952F
:101070001F93CF93DF93EB01142F409331014F3F28
:1010800039F0842F0E94F60AE12FF0E00E940D0B48
:10109000C0FF08C080E1C130D80720F482E080930F
:1010A000C80004C01092C800D695C7952197D09368
:1010B000CD00C093CC008091C90083FD10C0109278
:1010C000AF011092B001109285011092860110922A
:1010D000840186E08093CA0088ED8093C900DF9187
:1010E000CF911F910895CF92DF92EF92FF920F93CD
:1010F0001F93CF93DF937C016B018A01C0E0D0E0A6
:101100000FC0D6016D916D01D701ED91FC91019059
:10111000F081E02DC7010995C80FD91F015010407B
:101120000115110571F7CE01DF91CF911F910F913C
:10113000FF90EF90DF90CF900895DF93CF9300D092
:10114000CDB7DEB7DC018DE089838AE08A83ED913B
:10115000FC9111970280F381E02DCD01BE016F5FFC
:101160007F4F42E050E009950F900F90CF91DF91B3
:1011700008950F931F93DF93CF93CDB7DEB72B97CF
:101180000FB6F894DEBF0FBECDBF8C01DE011B96FB
:1011900093E3499F4427090E411D802D599F5527F0
:1011A000400D511D699F6627500D611D799F77275E
:1011B000600D711D1124840F451F561F671F711D7F
:1011C000850F461F571F611D711D870F411D511D42
:1011D000611D711D769567955795479587959AE09E
:1011E000899F812D1124805D8E93411551056105E4
:1011F000710509F0CDCF222311F08DE28E93F80115
:1012000080819181AE014A1B5B0B455F5F4FFC0102
:1012100022813381C801BD01F90109952B960FB6D2
:10122000F894DEBF0FBECDBFCF91DF911F910F911C
:10123000089577FD02C020E008C070956095509534
:1012400041955F4F6F4F7F4F21E00E94B90808958D
:101250000F931F93DF93CF93CDB7DEB728970FB6C9
:10126000F894DEBF0FBECDBF9C01DE011896842F1F
:101270008F7011978A3010F4805D01C0895C8C9367
:1012800084E076956795579547958A95D1F74115EE
:1012900051056105710559F7F90180819181AE0110
:1012A0004A1B5B0B485F5F4FFC0102811381C90140
:1012B000BD01F801099528960FB6F894DEBF0FBE60
:1012C000CDBFCF91DF911F910F9108950F931F9381
:1012D000DF93CF93CDB7DEB7A0970FB6F894DEBFFC
:1012E0000FBECDBF9C01DE019096842F8170805D82
:1012F0008E937695679557954795411551056105EC
:10130000710599F7F90180819181AE014A1B5B0B50
:10131000405E5F4FFC0102811381C901BD01F801EC
:101320000995A0960FB6F894DEBF0FBECDBFCF9142
:10133000DF911F910F9108954F925F927F928F924C
:101340009F92AF92BF92CF92DF92EF92FF920F9354
:101350001F93DF93CF93CDB7DEB765970FB6F894A1
:10136000DEBF0FBECDBF2C01742ECB0135E1C32EE5
:10137000D12CCC0EDD1E822E9924AA24BB24672DED
:10138000752FA50194010E94221379018A01C801D9
:10139000B701A50194010E94F012472D461B089445
:1013A000C108D1084A3010F4405D01C0495CD60143
:1013B0004C93E114F1040105110521F07E2C5F2D01
:1013C000C801DDCFD201ED91FC91AE014C195D0950
:1013D0004B5E5F4F0280F381E02DC201B60109959B
:1013E00065960FB6F894DEBF0FBECDBFCF91DF91EB
:1013F0001F910F91FF90EF90DF90CF90BF90AF9033
:101400009F908F907F905F904F9008950E94520C14
:101410000E94F3060E94BD06FDCF0F931F93CF934A
:10142000DF93BC018230910510F462E070E0E0913E
:101430001102F0911202A0E0B0E040E050E024C0C0
:101440008081918186179707D0F08617970771F4EE
:1014500082819381109729F013969C938E93129713
:101460002CC0909312028093110227C041155105A0
:1014700019F08417950718F4EF018D01AC01DF0115
:10148000828193819C01F9013097D1F64115510574
:10149000F9F0CA01861B970B8430910580F48A818C
:1014A0009B810115110521F0F8019383828304C00B
:1014B0009093120280931102FE01329645C0FE0104
:1014C000E80FF91F619371930297998388833CC059
:1014D0008091F1019091F201892B41F480913401C6
:1014E000909135019093F2018093F1014091360182
:1014F000509137014115510541F44DB75EB78091C8
:10150000320190913301481B590B2091F101309128
:10151000F20124173507B0F4CA01821B930B86171A
:10152000970780F0AB014E5F5F4F8417950750F02F
:10153000420F531F5093F2014093F101F90161935F
:10154000719302C0E0E0F0E0CF01DF91CF911F91F5
:101550000F910895873118F020E030E045C0E82F62
:10156000F0E0EA50FF4FE49140913801E830A0F4F8
:1015700080917E0021E030E00E2E02C0220F331F4A
:101580000A94E2F7822B80937E0080E880937B00B0
:10159000E42BE0937C0015C03E2F385020917D0055
:1015A00081E090E0032E02C0880F991F0A94E2F7B1
:1015B000282B20937D0080EA80937B00342B30938E
:1015C0007C0080917A00806480937A0080917A0018
:1015D00086FDFCCF3091780020917900922F80E039
:1015E000232F30E0282B392BC9010895893170F45D
:1015F000ECEAF0E0880FE80FF11D9591E491F0E03E
:101600002FB7F8948181892B81832FBF0895E93109
:1016100050F4EE0FEC5EF44F0994E93120F4EE0F34
:10162000EA5BF44F09940895289A0895299A089539
:101630002A9A08952B9A08952F9A6AC0589A58C0EA
:10164000599A08955A9A08955B9A0895469A66C0E1
:10165000479A6AC05E9A08955F9A6CC02C9A089562
:101660002D9A4AC02E9A4EC08F9A08958E9A089548
:101670008D9A08958C9A0895899A0895889A089564
:101680005C9A08955D9A0895769A08952898089529
:10169000299808952A9808952B9808952F9838C06E
:1016A000589826C0599808955A9808955B980895B7
:1016B000469834C0479838C05E9808955F983AC0FD
:1016C0002C9808952D9818C02E981CC08F980895B6
:1016D0008E9808958D9808958C9808958998089506
:1016E000889808955C9808955D980895769808956F
:1016F000E4B5EF7DE4BD0895E0918000EF77E093DD
:1017000080000895E0918000EF7DE09380000895CF
:10171000E0918000E77FE09380000895E0919000E1
:10172000EF77E09390000895E091C000EF77E093A9
:10173000C0000895E091C200E77FE093C2000895E1
:101740001DBA109268001CBC10BE1FBA10927A001D
:1017500010926E0010926F00109271001092720041
:101760001092C900ECEBF0E0108214B817B81AB868
:101770001DB810BA108215B818B81BB81EB811BA27
:101780000895F89480E29EE40197F1F781E0809358
:10179000E00080E28093D80080E69AEE0197F1F7AE
:1017A0000E94A00B0C94003FFFCFF8940E94A00B66
:1017B00080E69AEE0197F1F70C940000FFCF8F932B
:1017C0008FB78F938091FB018D5F8D37D0F480931D
:1017D000FB018091F7018F5F8093F701D8F0809132
:1017E000F8018F4F8093F801A8F08091F9018F4F95
:1017F0008093F90178F08091FA018F4F8093FA017C
:1018000009C08D578093FB018091F7018E5F809313
:10181000F70128F78091F3018C5F8093F30158F072
:101820008091F4018F4F8093F40128F08091F501AD
:101830008F4F8093F5018F918FBF8F9118959B01EA
:10184000AC010E94380CFB010DC00E94380C6E1BCD
:101850007F0B685E7340C8F32150304040405040D9
:10186000E851FC4F211531054105510571F70895E7
:101870000FB6F89466B515B27091F3018091F4013A
:101880009091F5010FBE10FE05C06F3F19F07C5F0F
:101890008F4F9F4F11240024660F001C660F001C01
:1018A00070290895F894E1E6F0E020E820831082A2
:1018B00083E084BD85BDEEE6F0E0808181608083B9
:1018C00091E09093800082E080938100909390005B
:1018D000809391008093C00084E08093C100909336
:1018E000C2009093C3001092C40086E880937A00EF
:1018F00020937B0010927E0010927D000E94820C4B
:10190000789408958091D80087FF02C085FF56C063
:1019100081E08093D70080EA8093D80082E189BD7E
:1019200009B400FEFDCF80E98093D8001092E0005A
:1019300010921602109217021092180210921902B9
:1019400010921A0210921B0210921C0210921D0299
:1019500010921E0210921F021092200291E09093AA
:1019600013028DE78093140210922102109222023A
:1019700010922302909315021092240210922502D5
:1019800010922602109227028FE08093280220E214
:101990002093290290E890932A0210922B0282E071
:1019A00080932C0288E080932D0220932E02909346
:1019B0002F021092E1008DE08093E20008951F92C3
:1019C0000F920FB60F9211242F933F934F935F9373
:1019D0006F937F938F939F93AF93BF93EF93FF93F7
:1019E0001092E9008091E80083FFD8C12091F100B6
:1019F0009091F1004091F1005091F1006091F1005F
:101A00007091F100A091F100B091F10082EF80930C
:101A1000E800963009F044C0EDE0F1E020E0859167
:101A200095918417950711F0359617C0859195917A
:101A30008617970711F0339610C025913591449180
:101A4000CD01AF3FB10519F010F08FEF90E0841792
:101A500008F4482FF9015EEF04C02F5F2D30F9F62E
:101A60009DC18091E800282F30E0C90185709070F9
:101A7000892BB9F322FD95C1242F413408F020E4CD
:101A8000922F04C085918093F10091509923D1F752
:101A9000421B5093E800442321F7203411F381C105
:101AA000953061F48EEF8093E8008091E80080FF2C
:101AB000FCCF842F80688093E30073C19930F9F4E0
:101AC000222309F0E4C040931602109218021092EB
:101AD000FC018EEF8093E80091E0E8E6F1E021E080
:101AE0009093E9002093EB0085918093EC00859121
:101AF0008093ED009F5F973099F78EE1C3C09830D7
:101B000051F4203809F0C3C08091E80080FFFCCF79
:101B10008091160221C19132A9F4213A09F0B7C08F
:101B20008091E80080FFFCCF20E030E0F901E75C25
:101B3000FE4F80818093F1002F5F3F4F27303105AA
:101B4000A9F728C1903209F04CC0213209F09FC09A
:101B50008091E80082FFFCCF20E030E0F901E75CF3
:101B6000FE4F8091F10080832F5F3F4F273031057A
:101B7000A9F78BEF8093E8008EEF8093E8008091C7
:101B8000390190913A01A0913B01B0913C01863816
:101B90009105A105B10519F48FE08093FD018091B5
:101BA000390190913A01A0913B01B0913C018639F5
:101BB0009105A105B10509F0F4C084E08093E90026
:101BC0002FEF06C02093E8008091E80082FDFCCF53
:101BD0008091EE0090E083709070892B99F70E94BD
:101BE000D50B923251F4213209F051C040931802C2
:101BF0008091E80080FFFCCFCDC0933241F42132C8
:101C000009F045C08091E80080FFFCCFC3C0992354
:101C1000C1F48091E80080FFFCCF223811F080E011
:101C20000DC06093E9008091EB0090E025E096956F
:101C300087952A95E1F781701092E9008093F10071
:101C400080C0913011F0933011F5223001F541152B
:101C50005105E9F4362F3F77832F81508630B8F451
:101C60008EEF8093E8003093E900933009F496C03A
:101C700089E18093EB0081E090E002C0880F991F1A
:101C80003A95E2F78093EA001092EA008AC0623047
:101C9000710509F043C0213A19F5913071F4809132
:101CA000E80080FFFCCFE9E1F2E081918093F10050
:101CB00082E0E132F807C9F76DC0923039F48091C3
:101CC000E80080FFFCCF8091140246C0933009F0F9
:101CD00065C08091E80080FFFCCF809113023CC07A
:101CE000213209F05BC0993061F48091E80082FFF5
:101CF000FCCF8091F100809322028BEF8093E8006B
:101D000049C09A3029F4509314021092210242C023
:101D10009B3009F043C0409313023CC0633071050F
:101D200029F5213AE1F4913079F48091E80080FFBF
:101D3000FCCF809123028093F1001092F100109269
:101D4000F1001092F10026C0933041F58091E80037
:101D500080FFFCCF809115028093F1001BC02132DF
:101D6000E9F49B30D9F44093150214C06430710536
:101D7000A9F4213A99F4913089F48091E80080FF28
:101D8000FCCFE4E2F2E081918093F10082E0E03365
:101D9000F807C9F78EEF8093E80003C081E28093D3
:101DA000EB00FF91EF91BF91AF919F918F917F9148
:101DB0006F915F914F913F912F910F900FBE0F90B8
:101DC0001F9018951F920F920FB60F9211242F9308
:101DD0003F934F935F936F937F938F939F93AF93B3
:101DE000BF93EF93FF938091E1001092E100382FB1
:101DF00083FF11C01092E90081E08093EB00109204
:101E0000EC0082E38093ED0088E08093F000109274
:101E100016021092180232FF49C0809116028823E0
:101E200009F444C08091FC01882359F081508093CB
:101E3000FC01882331F484E08093E9008AE38093F5
:101E4000E8008091FD01882339F081508093FD01E5
:101E5000882311F40E94C10B20911402222331F136
:101E60008091FF018F5F8093FF0190E083709070FD
:101E7000892BE1F481E08093E9008091E80085FFFF
:101E800015C0809121028F5F80932102821771F427
:101E900010922102E9E1F2E081918093F10082E069
:101EA000E132F807C9F78AE38093E80030FF0CC0FD
:101EB00080E18093E2001092160281E08093170285
:101EC00080EA8093D80019BC80911702882379F0AA
:101ED00034FF0DC082E189BD09B400FEFDCF80E969
:101EE0008093D8008DE08093E20010921702FF915A
:101EF000EF91BF91AF919F918F917F916F915F9182
:101F00004F913F912F910F900FBE0F901F901895FA
:101F1000DF93CF930F92CDB7DEB7FC016983A08129
:101F2000B18112962D913C911397BE016F5F7F4F47
:101F300041E050E0F90109950F90CF91DF910895AC
:101F4000FC019FB7F89480911602882311F420E0D9
:101F500010C083E08093E9002091F200222349F42D
:101F60008091E80082FF05C085FD03C08BE6809369
:101F7000E8009FBF8085918597FD03C02F3F09F042
:101F80002F5F822F90E00895CF93DF93EC01888537
:101F9000998597FF09C0E881F9810680F781E02DD6
:101FA000CE0109959987888788859985DF91CF919A
:101FB0000895FC012085318537FD05C08FEF9FEF27
:101FC0009187808722C02FB7F894809116028823CA
:101FD00069F083E08093E9009BE68091E80085FD4D
:101FE00009C082FF03C09093E800F7CF2FBF2FEF07
:101FF0003FEF0CC09091F1008091E80085FD03C097
:102000008BE68093E8002FBF292F30E0C9010895A7
:10201000FC0180911602882371F09FB7F89483E049
:102020008093E9002BE602C02093E8008091E8004D
:1020300085FDFACF9FBF8FEF9FEF9187808708952F
:102040006F927F928F929F92AF92BF92CF92DF92C8
:10205000EF92FF920F931F93CF93DF933C018B017D
:1020600080911602882329F481E0D30112968C9383
:1020700011C03FB7F89484E08093E9008091FE019D
:10208000882369F08091E80085FD07C03FBF81E0AB
:10209000E3018A8388249924DAC01092FE018824FF
:1020A000992474E0A72E60E4B62E21EFE22EF12CE5
:1020B0009AE3C92E83E0D82EC5C09091E400915FC9
:1020C0008091E80085FD19C03FBF8091E400891729
:1020D00031F481E08093FE01F3018283B8C08091E6
:1020E0001602882329F481E0D30112968C93AFC0A5
:1020F0003FB7F894A092E900E3CF8091F2002B2D36
:10210000281B822F90E04817590708F4242F622FCC
:1021100070E0E801D701E0E4E21BE03428F4EE0FC0
:10212000FF27EB56FF4E099480C089918C938991CB
:102130008C9389918C9389918C9389918C938991BB
:102140008C9389918C9389918C9389918C938991AB
:102150008C9389918C9389918C9389918C9389919B
:102160008C9389918C9389918C9389918C9389918B
:102170008C9389918C9389918C9389918C9389917B
:102180008C9389918C9389918C9389918C9389916B
:102190008C9389918C9389918C9389918C9389915B
:1021A0008C9389918C9389918C9389918C9389914B
:1021B0008C9389918C9389918C9389918C9389913B
:1021C0008C9389918C9389918C9389918C9389912B
:1021D0008C9389918C9389918C9389918C9389911B
:1021E0008C9389918C9389918C9389918C9389910B
:1021F0008C9389918C9389918C9389918C938991FB
:102200008C9389918C9389918C9389918C938991EA
:102210008C9389918C9389918C9389918C938991DA
:102220008C9389918C9389918C938E018091E80095
:1022300085FD02C0C092E800461B570B860E971E14
:10224000D092FC014115510509F037CF3FBFC401C1
:10225000DF91CF911F910F91FF90EF90DF90CF9082
:10226000BF90AF909F908F907F906F900895FB01EB
:102270006032710528F46A307105A1F488E208958E
:102280006038710520F4EB5AFC4F84910895613A4F
:10229000710540F06F3F710509F020F4EB5CFC4FD5
:1022A0008491089580E0089580911602882309F4AE
:1022B00041C02FB7F89481E08093E9009091E40049
:1022C0009E5C31E08091E80085FD0EC02FBF8091BB
:1022D0001602882379F18091E400891759F12FB70C
:1022E000F8943093E900EECF809119028093F100C9
:1022F00080911A028093F10080911B028093F1007B
:1023000080911C028093F10080911D028093F10066
:1023100080911E028093F10080911F028093F10052
:10232000809120028093F1008AE38093E80010926C
:1023300021022FBF0895CF93DF93EC0166FD02C009
:1023400080E001C082E067FD8064809319021092F2
:102350001A026F736F3309F464E660931B021092E4
:102360001C0210921D0210921E0210921F02109267
:102370002002CE010E9454111092190210921B02E9
:10238000CE010E945411DF91CF910895662311F080
:102390000E949B110895CF93DF93EC0167FD05C068
:1023A0001B8270E00E9437110FC0603C10F56F7304
:1023B0002B81213071F41B8270E08C819D81682B10
:1023C000792BCE010E943711682FCE010E94C611D1
:1023D00029C0223039F5862F90E0A6E0880F991F9A
:1023E000AA95E1F72C813D81282B392B3D832C8345
:1023F0000DC0603E68F4862F90E08F719070F6E01B
:10240000880F991FFA95E1F79D838C8381E009C0BD
:10241000603F30F46295607F1C826D8382E001C072
:102420008FEF8B8381E090E0DF91CF9108958091D1
:102430001602882309F44FC02FB7F89486E08093E2
:10244000E9009091E4009E5C36E08091E80085FD13
:102450000EC02FBF809116028823E9F18091E4001D
:102460008917C9F12FB7F8943093E900EECF809126
:1024700024028093F100809125028093F1008091E5
:1024800026028093F100809127028093F1008091D1
:1024900028028093F100809129028093F1008091BD
:1024A0002A028093F10080912B028093F1008091A9
:1024B0002C028093F10080912D028093F100809195
:1024C0002E028093F10080912F028093F1008AE325
:1024D0008093E8002FBF0895E0E0F2E08AE0DF019A
:1024E0001D928A95E9F71092020288EE93E0A0E02F
:1024F000B0E08093030290930402A0930502B0938E
:1025000006021092070281E691E090930102809307
:102510000002EAE0F2E086E0DF011D928A95E9F729
:1025200010920C0289E591E090930B0280930A02CD
:102530001092100208952FEF3FEFFC0131872087A2
:102540000E94820C0FB6F8948091F7019091F801E7
:10255000A091F901B091FA010FBEAC018091160271
:10256000882339F068EC70E080E090E00E941F0C56
:10257000089580911702882309F10FB6F89480918D
:10258000F7019091F801A091F901B091FA010FBE05
:102590009C0110C00FB6F8948091F7019091F8015A
:1025A000A091F901B091FA010FBE821B930B8B3FF2
:1025B0009105A8F480911702882361F70FB6F8946B
:1025C0008091F7019091F801A091F901B091FA0181
:1025D0000FBE841B950B855C994008F4BFCF08950E
:1025E000629FD001739FF001829FE00DF11D649FF7
:1025F000E00DF11D929FF00D839FF00D749FF00D83
:10260000659FF00D9927729FB00DE11DF91F639F23
:10261000B00DE11DF91FBD01CF011124089597FBF5
:10262000092E07260AD077FD04D02ED006D0002030
:102630001AF4709561957F4F0895F6F790958195FE
:102640009F4F0895A1E21A2EAA1BBB1BFD010DC0CE
:10265000AA1FBB1FEE1FFF1FA217B307E407F50752
:1026600020F0A21BB30BE40BF50B661F771F881F2E
:10267000991F1A9469F760957095809590959B01C4
:10268000AC01BD01CF010895AA1BBB1B51E107C0DE
:10269000AA1FBB1FA617B70710F0A61BB70B881FF2
:1026A000991F5A95A9F780959095BC01CD01089581
:1026B000EE0FFF1F0590F491E02D0994F894FFCFE1
:1026C00052455345540052656365697665643A2006
:1026D00045302030200020004144445200524551F2
:1026E00000434D44004A565300434D53004341506C
:1026F00000FF8000300200004000E1000000000800
:10270000200202210200000000050873083C076156
:10271000074C077B0700000000CB11730800000086
:0E27200000880F2010A00FD90FC40F08100062
:00000001FF
